:100000002500000B320C2B00F90C2C000000EC0238
:10001000060AEB02040A03082800480C0309040C32
:1000200029000E0231092D006D02080C2A00FB0C7C
:100030000600040C03092D03F90C26000306FB0C33
:100040000307F90C0600040C0309EA021B0AF90C69
:100050000600080C0309AE02E902110AE8020D0AC3
:100060000308E201530843084508490853084308B8
:0C007000450841085308430845084508AE
:10020000C20C0200FF0C060002092604FD0C0600C9
:10021000110C28000209E8020A0B4604F90C06003A
:10022000060C28000209E802120B0E0C03096E00EE
:040230000C09170B93
:021FFE00EB0FE7
:00000001FF
